:020000040800F2
:1060000048F200203D630008D5280308B5AD00081C
:10601000E1AF0008516F00080959030800000000B3
:10602000000000000000000000000000E93B030841
:10603000418D000800000000C5300308614E0308D0
:1060400021590308A130030825500308E132030851
:10605000D9A50008993203087DA40008C5A400084A
:10606000E9A400080DA5000831A50008298A000848
:106070004D8A0008718A0008958A0008B98A0008CC
:10608000DD8A0008018B0008F56C00084D560308F6
:1060900071560308696F00088D6F000855A5000848
:1060A00049500308B5500308915003086D50030888
:1060B000D9500308FD50030821510308FDAD000825
:1060C000D9AD000845AE000821AE0008A13A03088A
:1060D000C53A0308E5540308095503082D5503087C
:1060E000A1A40008BD32030829560308B1510308D2
:1060F0001D520308F9510308D5510308196D000812
:1061000031A600087D3A030845510308E93A03081F
:106110009D540308C1540308695103088D510308B5
:10612000258B0008498B00086D8B0008918B0008B7
:10613000DFF80CD000F056FB004800472568030844
:1061400048F20020EFF30980704780F30988704718
:10615000EFF30880704780F30888704740BA7047B3
:10616000C0BA70472DE9F85F40F804DB51F804DB52
:10617000BDE8F85F62B670472DE9F85F50F804DBC0
:10618000BDE8F85F62B6704772B6704762B6704796
:1061900040EA01039B0703D009E008C9121F08C0A9
:1061A000042AFAD203E011F8013B00F8013B521E29
:1061B000F9D270470FB400B58DB010A909900B90BB
:1061C00000914FF0FF300A9000200C900548069097
:1061D000054807906A4609A80F9900F021F90DB00B
:1061E0005DF814FB416400085F6400082DE9FF5F5F
:1061F000D3E901464FF0FF3B91461D465F464FF005
:106200000008A9697F1C01988847296A8246884747
:106210000028F6D11AF101000CD024F4C064002E3D
:1062200019DD600614D5BAF12B0F09D0BAF12D0F84
:106230000ED103E0584604B0BDE8F09F44F48064FA
:10624000A9697F1C01988847761E8246002E02DDD0
:10625000BAF1300F03D0B9F1000F26D032E0761E2C
:10626000A96944F400747F1C019888478246002E77
:1062700005DDBAF1780F06D0BAF1580F03D0B9F1A5
:10628000000F10D01EE0B9F1000F02D0B9F1100FCD
:1062900018D1761EA96924F400747F1C01988847E0
:1062A0008246102002E0082000E00A20814609E032
:1062B00008FB0908761EA96944F400747F1C019844
:1062C00088478246002E05DD4946504600F091F889
:1062D0000028EDDAE96901988847A00502D46FF03B
:1062E0000100A8E7E00726D1600613D5C8F1000039
:1062F000610500D44046296801F104022A6009685A
:10630000220501D5087016E0220701D5088012E0A9
:10631000086010E0286800F1040129600068210588
:1063200002D580F8008006E0210702D5A0F80080A1
:1063300001E0C0F8008038467DE70000064880474D
:1063400006480047FEE7FEE7FEE7FEE7FEE7FEE75A
:10635000FEE7FEE7FEE7FEE7D14F030831610008E4
:1063600030B50B46014600202022012409E021FA25
:1063700002F59D4205D303FA02F5491B04FA02F522
:106380002844151EA2F10102F1DC30BD2DE9F05FB9
:106390000546002092469B46884606468146402494
:1063A0001DE0284641464746224600F03CFAB0EB45
:1063B0000A0052465B4671EB0B0110D3104619469A
:1063C000224600F021FA2D1A67EB01084F462246BB
:1063D0000120002100F018FA17EB00094E41201EA1
:1063E000A4F10104DDDC484631462A464346BDE8B7
:1063F000F09F3A2800D2303820F02002412A01D301
:10640000A2F137004FF0FF32884200D20246104618
:106410007047000002681144137801601846704705
:106420000B461146044A4A61044A0A620022C1E945
:10643000033200F01FBA0000156400086B68000802
:10644000426842B1016811F8013B23B1521EC0E914
:106450000012184670470121C160881E70474168CC
:1064600059B1C368026843B98368934205D0521E8C
:10647000491CC0E90021002070474FF0FF307047F1
:106480002DE9FE4F074681EA0300C00F0E4601903A
:1064900021F0004123F00044B81AA14105D238464A
:1064A000314617461E460B46024623F00040104375
:1064B00004D13846314603B0BDE8F08F350DC5F341
:1064C0000A00C3F30A510290401A0090402867DA8C
:1064D000C3F3130040F4801B0198924620B10023BF
:1064E000D2EB030A63EB0B0B00985946C0F1400254
:1064F000504600F089F980460C4650465946009AAD
:1065000000F0A1F9C0197141EF1785EA11533B431F
:106510003FD0019A4AB3009A012A11DC0022801A66
:1065200061EB05514FF0004303EA0555CDE9002525
:10653000801841F580114246234600F044FBBAE73B
:106540002E050025401B61EB0601401941F5801224
:10655000001852412818A6F5001343EB020140EA47
:10656000D47018EB0808644113E064084FEA380857
:106570004FF0000244EAC0744FEA0553801A61EB01
:106580000301801841F5801149084FEA3000801856
:1065900059414246234603B0BDE8F04F00F006BB28
:1065A0000198012240000023D0EB020263EBE0736C
:1065B00001984FEAE074381A66EB0401EBE783F0C8
:1065C00000435DE781F000415AE72DE9FE4F81EA83
:1065D000030421F0004504F0004423F000414FF093
:1065E000000A009450EA050302D052EA010304D1E4
:1065F0000020014603B0BDE8F08FC1F30A53C5F394
:106600000A542344A3F2F3330193A0FB02B3C5F36E
:10661000130545F4801CC1F3130141F480180CFBF1
:10662000023300FB083E810A930A41EA8C5143EA97
:106630008853A1FB03474FEA9C2505FB03734FEAF0
:10664000982601FB06373D05260545EA1435BBEBC8
:1066500006016EEB0503850E920E45EA8C1542EAA3
:106660008812A5FB0206261E67EB00070C0D44EA04
:106670000334A61947EB1350C1F313044FF0000382
:106680001946E5FB02014FEA033545EA1455019B23
:106690004FEA0432009CA3F10C03CDE900A445EAC3
:1066A000060502932B4600F08EFAA3E72DE9F04D84
:1066B00081EA030404F0004B21F0004714464FF038
:1066C000000A23F0004150EA070220D054EA0102F8
:1066D0001DD0C1F30A550246C1F31300C7F30A5691
:1066E000C7F3130340F4801143F48013A6EB0508AD
:1066F000101BD64608F2FD3873EB010002D308F1F7
:10670000010801E092185B41B8F1000F03DA0020A4
:106710000146BDE8F08D00204FF48015064607467F
:106720000EE0B2EB040C73EB010C04D3121B064316
:1067300063EB01032F436D084FEA300092185B4171
:1067400050EA050CEDD152EA030012D082EA0400AF
:1067500083EA0105284303D100224FF0004308E0FB
:10676000101B8B4102D20122002302E06FF00102D4
:1067700053101AEB060047EB085110EB0A0041EBEF
:106780000B01BDE8F04D00F011BAC1F30A52C1F39C
:10679000130140F2FF3341F480119A4202DA0020E3
:1067A0000146704740F233439A42A2F2334202DC80
:1067B000524200F038B800F027B8000030B5002988
:1067C00004DB4FF00044404264EB0101002B04DB8A
:1067D0004FF00044524264EB0303994208BF9042D9
:1067E00030BD0000064C074D06E0E06840F00103B4
:1067F00094E8070098471034AC42F6D3FFF79CFCAE
:106800007476030894760308202A04DB203A00FA01
:1068100002F1002070479140C2F1200320FA03F3F7
:10682000194390407047202A04DB203A21FA02F0F5
:106830000021704721FA02F3D040C2F120029140BA
:10684000084319467047202A06DBCB17203A41FA45
:1068500002F043EAE07306E041FA02F3D040C2F1ED
:10686000200291400843194670474FF4F051C0B2DE
:1068700000F0FEB92DE9F34F8BB0012081460A905C
:106880004FF0000801F10C000C4646460DF1080AD5
:106890000190626901210198904705002DD0252DB6
:1068A0002CD0216A8847C0B16269012101989047C4
:1068B000216A88470028F7D1411E626901989047F4
:1068C00000E0761CA1690B988847216A8847002858
:1068D000F7D1E1690B988847DBE7A1690B988847F6
:1068E0000746A84201D1761CD3E7E1690B98884797
:1068F0007F1C02D1B8F1000F72D016E10027626947
:106900003D463946019890472A2804D16269012101
:10691000019890470125DFF890B262690121019842
:106920009047A0F130020A2A0DD2B9F1000F0AD027
:106930005F4578DC07EB870100EB4107303F72D4FD
:1069400045F01005E9E7E90601D46FF000476C282F
:106950000AD04C2814D0682815D06A280DD0742885
:106960001CD07A281AD01DE0626901210198904755
:106970006C2802D045F0040514E045F002050DE056
:1069800045F020050AE062690121019890476828D6
:1069900002D045F0080505E045F400656269012173
:1069A00001989047C4E90157652842D019DC58285E
:1069B0007ED00CDC45283CD004DC252826D041289C
:1069C00031D136E0462834D047282CD131E05B283D
:1069D0007BD061282DD0632877D0642823D15EE056
:1069E00022E06F284CD008DC662822D0672820D00F
:1069F000692826D06E2816D12CE0702849D073283B
:106A00006CD075284BD078280DD151E0A1690B9836
:106A10008847054625283FF466AFE1690B9888470B
:106A20006D1C3FF467AF80E04FF0FF300DB0BDE864
:106A3000F08F23466A466FF001000B99AFF3008098
:106A40009EE045F040006060A80723464FF000023A
:106A500035D43DE0206800F104012160006829057B
:106A600001D5067015E7290701D5068011E7A907AA
:106A700004D54FEAE671C0E900610AE7066008E75D
:106A800045F040006060A80723464FF0080216D486
:106A90001EE040F60E0125EA0100606016E045F0B8
:106AA00040006060A80723464FF00A0207D40FE0B9
:106AB00045F040006060A80708D5234610226FF01B
:106AC00001000B99AFF300805AE007E02346102243
:106AD0006FF001000B99FFF789FB51E00027BB46DF
:106AE0003946632802D05B2807D040E0E80601D48D
:106AF000C4F808904FF0010B39E062690121019858
:106B000090475E2804D10127626939460198904771
:106B1000216931B90023524642F82130491C082925
:106B2000FADB10B1216911B10FE040467EE7C117D1
:106B300000EBD1635A110AEB820123F01F03C31A41
:106B40000A6809FA03F002430A60626901210198A8
:106B500090475D28E5D14FB10020514651F82020E3
:106B6000D24341F82020401C0828F7DB02A90B463D
:106B70002246CDF800B06FF001000B99AFF3008012
:106B8000002808DA4FF0FF31401C01D10A9800B903
:106B9000414608464AE7E90701D108F101080644E1
:106BA00000200A9075E60000CCCCCC0C10B5002B70
:106BB00008DA401C41F1000192185B411A4301D1EF
:106BC00020F0010010BD2DE9FF4D934611B1B1FA3F
:106BD00081F202E0B0FA80F220329246FFF714FE12
:106BE000039A0746884640EA0B0011435B46084378
:106BF00004D13846414604B0BDE8F08D114653EA51
:106C0000020016D0CAF140025846FFF70CFE0446B7
:106C10000D464FF00106584652460399FFF7F4FD22
:106C2000084300D10026344345EAE675274345EA88
:106C300008080E984FF00005A0EB0A014FEAD72094
:106C40000A314FEA47532A4640EA48504FEAD824CF
:106C500002D500200146CEE7281844EB0151DDE9BA
:106C60000C45001904B06941BDE8F04D9EE70000F5
:106C70007F2801D9002208E0064A02EB5002C00733
:106C8000127800D1120902F00F0201209040084052
:106C9000704700003176030870B501EB020410F86C
:106CA000015B15F0070301D110F8013B2A1106D151
:106CB00010F8012B03E010F8016B01F8016B5B1E6B
:106CC000F9D12B0705D40023521E0FD401F8013B44
:106CD000FAE710F8013B02F10202A1EB030303E023
:106CE00013F8015B01F8015B521EF9D5A142D6D31E
:106CF000002070BD0348806D00B10047024903A029
:106D00002EF00EBFAC030020E86D03084952513A43
:106D100025730D0A000000000348C06C00B1004755
:106D2000024903A02EF0FCBE2C0400204170030891
:106D30004952513A25730D0A00000000002981686C
:106D400002D041F0010101E021F0010181607047B2
:106D50000029816802D041F4807101E021F4807142
:106D600081607047014600208968490700D50120ED
:106D70007047014600208968090700D50120704747
:106D800010B542680E4B0C791A400B6842EA042297
:106D90001343436082680B4B1A40D1E902432343FB
:106DA0004C7942EA440213438360C26A097C22F4AC
:106DB0007002491EC9B242EA0151C16210BD000011
:106DC000FFFEF0FFFDF7F1FF70B5072609290AD98C
:106DD000C568A1F10A0404EB4404A640B543A340EE
:106DE0001D43C56007E0056901EB4104A640B543BA
:106DF000A3401D4305611F23072A09D2446B521E7D
:106E000002EB820293409C4391400C43446370BD6B
:106E10000D2A09D2046BD21F02EB820293409C43DD
:106E200091400C43046370BDC46A0D3A02EB8202C8
:106E300093409C4391400C43C46270BD816841F013
:106E40000801816070470029816802D041F4A001E7
:106E500001E021F4A00181607047816841F00401E4
:106E6000816070470B4F4FF0280800252E462C46B6
:106E700002F0DCFCA84200D90546064405202DF0AE
:106E80000BFE641C282CF3D3B6FBF8F0C7E90050C6
:106E9000EBE70000A003002010B501F063F9002823
:106EA00004D02DF02BFF03F04FFFFAE710BD0000D8
:106EB00070B5054603F0E8F94FF43F720DA10F4895
:106EC0002BF0B4FE2DF09CFF0D4C0EA06178626893
:106ED0002EF0A2FA607800280BD06068A84208D291
:106EE00002F0CCFCBDE870400D4A08210DA02DF049
:106EF00067BD70BD4465697663650000418F000819
:106F000078030020446576696365547970653A2595
:106F1000642C4465766963654E756D3A256400009E
:106F2000215303087469636B54696D657200000036
:106F30007047000010B501F0FDFE03482BF006FF7E
:106F4000BDE8104001F014BAADA70008704700007A
:106F500001A02EF0E5FDFEE74572726F72204275CA
:106F600073210D0A000000000348406E00B1004785
:106F7000024903A02EF0D4BDAC0300202F6E0308FD
:106F80004952513A25730D0A000000000348806EF3
:106F900000B10047024903A02EF0C2BDAC0300209F
:106FA000436E03084952513A25730D0A0000000050
:106FB000024B01461A69586F2FF09CBC60000020FC
:106FC000FEB508AF0C4615461E460ECF8DE80E00E6
:106FD00033462A4621462EF0FBFCFEBD2DE9FF4F2D
:106FE00090F91880029CDFF850910E9A2469D9F824
:106FF0001C70A60890F91A4008FB04F800242546E6
:10700000A246A446DB1B81B11031C9F82810D9F87B
:1070100008108B427EDA90F919B00BEB0307002FB2
:1070200078DD002B05DD9A4605E0444FC9F828704D
:10703000EDE7C3F1000CABEB0C0707EB0A038B4247
:1070400003D90CEB0103A3EB0A0B06EB0801491E65
:1070500091426ED9424502DBA2EB080101E04FF0FC
:10706000FF318E463449B242D1F804905FD3A2EB8F
:10707000060404F10104A6F1010258E00299DFF8C8
:10708000B88001EB8201B1F91430D8F81860B1F979
:1070900016109F1BD8F82030A1EB030645D44F45AE
:1070A00043DA002E41DBD8F80C108E423DDA0D9900
:1070B00011B1012910D01FE090F9181090F9195062
:1070C00094FBF1F34D435D430CFB015501FB134170
:1070D00001440D441C350FE090F9181090F9195037
:1070E00094FBF1F34D435D430CFB015501FB13434E
:1070F000C91A01440D441B35D8F814300AFB09F1B4
:1071000006FB0313D8F87410664639441944D8F8BE
:10711000283008E00DE02F78761CDF5D0F7090F9C5
:10712000187049443D445E45F5D3641C521E7245B7
:10713000A4DCBDE8FF8F000060000020126C030893
:10714000F0B505ACE0CC074C04F1040CACE86800E9
:107150006B436767C4E9053073432361C4E90712D1
:10716000F0BD000060000020F0B405AC049EB4E85F
:10717000A010174C60624FF4B470C4E90B2397FB66
:10718000F0F200FB1270C4E90D60002802DA00F58D
:10719000B470A063C4E90F5C59B11031A162A06B57
:1071A00050B165B1012D0DD0022D0ED1F0BC00F013
:1071B00031BD0848A062F2E7F0BC00F00DB8F0BCA9
:1071C00000F0CCBCF0BC00F0F7BCF0BC7047000095
:1071D00060000020126C03082DE9F04FFF4E90B0C4
:1071E000706A00286FD0B16972688B46F46A1144E6
:1071F000A14268DDF369B1680193CD18336B009348
:107200009D4260DD336AF568776B9E462B44BA4633
:10721000BB4258DD33469C469E6BDCF81830DCF8E8
:107220002C709946FB1ADCF83C800593A9EB070308
:107230000793DCF81C30DCF830709946FB1A099390
:10724000A9EB07030D93DCF83470DCF82030A7EBD2
:10725000030CDB1B03930023CDF82CC05A2E33D034
:10726000B42E7ED0B6F5877F7CD090F91860DFF819
:107270006C933719A7EB0B070296C9F8687090F961
:107280001960DDF800C00496B444019E9742ACEB4F
:107290000608C9F86C8090F91AC0D444ACEB0E060D
:1072A000CC46C9F84C6001DDCCF868204F468845D3
:1072B00000DDF966AE4200DDFD645C4571DBBB6557
:1072C000059C3C66F0E3F7E3C44EB8F1010F34D0FF
:1072D000B8F1020F75D090F918600E963719BF4EAD
:1072E000A7EB0B08C6F8688090F91A90009F019EE2
:1072F0004F44BE1BB94F9045FE6690F919700F9729
:1073000007EB0A0CACEB0E07DFF8D0C2CCF84C70E0
:1073100001DDCCF86820DFF8C4C28E4201DDCCF874
:107320006C10AF4201DDCCF84C505C4573DBCCF8FF
:107330005830059CCCF86040CFE0B44690F91A6014
:107340003719A7EB0B07CCF86870049790F91990E0
:10735000009E09EB0607019EA7EB0608CCF86C809F
:1073600001E0F3E019E290F91860029606EB0A07D3
:10737000A7EB0E06CCF84C60049F974201DDCCF8D9
:107380006820884501DDCCF86C10AE4201DDCCF8F8
:107390004C505C4506DBCCF84430059CCCF8604092
:1073A00005E07EE3079CCCF84440CCF86030DDE992
:1073B0000045AC4206DBCCF85C30099CCCF864405C
:1073C00005E029E00D9CCCF85C40CCF86430F24537
:1073D00007DB029C641ECCF858400B9CCCF848405C
:1073E00007E0DDE90245641B641ECCF85840CCF888
:1073F0004830029CDCF86870DCF8606009FB04F936
:10740000F61B06FB094ADCF86460DCF86C50AD1B27
:107410006C43E443FBE25BE0B14690F919600A96E5
:107420003719A7EB0B07C9F86870029790F9188015
:10743000009F019E4744A7EB060CC9F86CC090F969
:107440001A705744A7EB0E06C9F84C60029F97428A
:1074500001DDC9F868204F468C4500DDF966AE4273
:1074600000DDFD645C450A9C04DB641EFC65059C34
:107470003C6604E0079D641B641EC7E91743DDE911
:107480000045AC4203DBBB65099C7C6602E00D9CB9
:10749000BC657B66F24503DB7B640B9CBC6402E04D
:1074A000039CC7E911433E6EBD6EC8F10009AD1BD8
:1074B00008FB05F404F1010A0A9CFE6E04FB08F4C3
:1074C000A4EB08050A9CA41B7E6E34442C445FE2A6
:1074D000079CCCF85840CCF86030DDE90045AC4260
:1074E00007DBA9F10104CCF84440099CCCF86440C6
:1074F00007E00D9DA9EB0504641ECCF84440CCF8D0
:107500006430F24505DBCCF85C300B9CCCF848408D
:1075100004E0039CCCF85C40CCF84830DCF86050C8
:10752000DCF868404FF00109661BDDE90E4504FBFD
:107530000564C4F1000A0E9CDCF864706C43DCF84E
:107540006C600E9DF61B06FB045460E2234EB8F1FE
:10755000010F30D0B14690F91860B8F1020F79D020
:107560003719A7EB0B070296C9F86870049790F9D2
:107570001980009F019E4744A7EB060CC9F86CC018
:1075800090F91A60069606EB0A07A7EB0E06C9F8F3
:107590004C60049F974201DDC9F868204F468C4536
:1075A00000DDF966AE4200DDFD645C457DDBBB6558
:1075B000059C3C66C3E0B14690F9186008963719FF
:1075C000A7EB0B06C9F86860029690F91960009F56
:1075D00004963744019EA7EB060801E060000020F6
:1075E000C9F86C8090F91AC00CEB0A07A7EB0E06DD
:1075F000C9F84C600696029E4F46964200DDBA6678
:107600004F46884500DDF966069EAE4200DDFD640A
:107610005C4505DB089C641EBC65059C3C6605E07A
:10762000DDE90754641B641EBC653B66DDE900456B
:10763000AC4203DBFB65099C7C6602E00D9CFC65AB
:107640007B66F24507DBACF1010CC7F844C00B9C2C
:10765000BC6406E014E0039CACEB0404641EC7E9C0
:1076600011433E6EBD6E089CAD1B04EB050AFD6E1A
:107670007C6E4FF0FF39651B089C2C1B049D36E285
:107680003719A7EB0B070696C9F8687090F91960CF
:10769000DDF800C00C96B444019EACEB0608C9F8B6
:1076A0006C8090F91AC0D44400E045E0ACEB0E06C3
:1076B000CC46C9F84C60974201DDCCF868204F46B3
:1076C000884500DDF966AE4200DDFD645C4505DB02
:1076D000069C641EBC65059C3C6605E0DDE906452C
:1076E000641B641EBC653B66DDE90045AC4205DBFE
:1076F0000C9C641EFC65099C7C6605E0DDE90C546D
:107700002C1B641EFC657B66F24503DB7B640B9CD3
:10771000BC6402E0039CC7E911433D6EBC6EFE6E83
:10772000651B069C4FF0FF39A5EB040A069D0C9CD7
:1077300035447E6EAD1BDAE1079CBC653B66DDE936
:107740000045AC4205DBA8F10104FC65099C7C66A0
:1077500005E00D9CA8EB0404641EFC657B66F24505
:1077600005DB069C641E7C640B9CBC6405E0039DE9
:10777000A8EB0504641EC7E911433E6EBD6E029C72
:10778000AD1B2C44FD6EC4F1000AA8EB05047D6E10
:107790004FF001092C446442A8E1DFF8BCC3B8F102
:1077A000010F31D0B8F1020F73D090F918600E9626
:1077B0003719A7EB0B07CCF86870B94690F91A7027
:1077C000009E91453744019EA7EB0608CCF86C80DB
:1077D00090F91960049606EB0A07A7EB0E06CCF8A1
:1077E0004C6001DDCCF86820884501DDCCF86C10D8
:1077F000AE4201DDCCF84C505C4575DBCCF858301E
:10780000059CCCF86040CAE090F91A9009EB040797
:10781000A7EB0B07CCF86870029790F919600F96E8
:10782000009F3744019EA7EB0608CCF86C8090F9C6
:1078300018600E9606EB0A07A7EB0E06CCF84C6014
:10784000029F974201DDCCF86820884501DDCCF825
:107850006C10AE4201DDCCF84C505C4507DBA9F161
:107860000104CCF84440059CCCF8604007E0079D3B
:10787000A9EB0504641ECCF84440CCF86030DDE987
:107880000045AC4206DBCCF85C30099CCCF8644087
:1078900005E02AE00D9CCCF85C40CCF86430F24561
:1078A00005DBCCF858300B9CCCF8484004E0039C36
:1078B000CCF85840CCF848300E9C0F9D644204FB35
:1078C00005F90E9CDCF860706C43DCF868600E9D76
:1078D000F61B06FB045A2C46DCF86C60DCF864509E
:1078E000AD1B6C43641C92E054E090F91960029661
:1078F0003719994EA7EB0B089045C6F8688090F9A8
:107900001890009F019E4F44A7EB060C924EC6F8BC
:107910006CC090F91A705744A7EB0E068E4FFE64A8
:1079200000DDBA668C4F8C4500DDF966AE4200DDA5
:10793000FD645C4503DBFB65059C3C6602E0079C3F
:10794000C7E91743DDE90045AC4205DBA9F10104B5
:10795000BC65099C7C6605E00D9DA9EB0504641ED1
:10796000BC657B66F24503DB7B640B9CBC6402E078
:10797000039CC7E91143BE6E3D6EAD1B09FB05F4C8
:10798000A4F1010A7D6EFC6E661B029D05FB096475
:107990003C653EE0079CCCF85840CCF86030DDE90F
:1079A0000045AC4205DBCCF84430099CCCF864407F
:1079B00004E00D9CCCF84440CCF86430F24507DB81
:1079C000049C641ECCF85C400B9CCCF8484007E05B
:1079D000DDE90354641B641ECCF85C40CCF84830ED
:1079E000DCF86850DCF86040DCF86470661B0E9DC3
:1079F000049C4FF0010905FB046A2C46049DDCF849
:107A00006C606C430E9DF61B06FB04546442CCF87C
:107A10005040DFF844C1DCF86040DCF86850A34611
:107A20002F1BDCF86440DCF86C50A046A5EB040E7C
:107A3000DCE91246361B0096002F3DDDBEF1000F3B
:107A40003ADD009E002E37DD4D1BD61B05EB0801ED
:107A500051430196CCF85410029190F9181090F906
:107A60001950DCF844604D437543DCF85C6006FB5C
:107A70000155DCF85810664608442918DCF8140053
:107A80001C31444308FB0242DCF87440984604EB86
:107A90000B0010446246CCF83430136CDCF8342010
:107AA00053E0079CBC653B66DDE90045AC4204DB66
:107AB000FB65099C7C6603E04BE00D9CFC657B66E6
:107AC000F24503DB7B640B9CBC6402E0039CC7E9CA
:107AD00011433E6EBD6E029CAD1BA4EB050A049CD7
:107AE000FD6E4FF00109641B7D6E2C44029D6C43BA
:107AF0004EE74246C6F830801DE0C6F82C8044466A
:107B0000D6F828C00FE00A781CF8022013B1012B28
:107B100002D004E0027002E0057815430570401CB5
:107B2000641C4944F462BC42EDD1019A51441044B2
:107B30000BF10102326393467245DED1326D11447E
:107B4000029A1044039A521C7263009C0392A24250
:107B5000CFD110B0BDE8F08F6000002070B5154D9A
:107B600088B06E6AEC6AA96996F918301819A142B2
:107B700000DD0C466A681144814200DA0846A042E2
:107B800015DD96F9192096F91A1004AE0FC6A968EA
:107B9000E8692E6A4318E968CDE900047218CDE956
:107BA0000223D5E90C213346002000F061F808B02B
:107BB00070BD00006000002070B5154D88B06E6A81
:107BC0002C6BE96996F919301819A14200DD0C46B1
:107BD000AA681144814200DA0846A04215DD96F9F0
:107BE0001A2096F9181004AE0FC6E968286AAE6923
:107BF00043186968CDE900047218CDE902233346C1
:107C000001206A6BE96A00F033F808B070BD00002B
:107C10006000002070B5154D88B06E6A6C6B296AE3
:107C200096F91A301819A14200DD0C46EA68114491
:107C3000814200DA0846A04215DD96F9192096F92E
:107C4000181004AE0FC6A968E869AE6943186968E0
:107C5000CDE900047218CDE90223D5E90B123346B1
:107C6000022000F005F808B070BD000060000020A0
:107C70002DE9FF4F83B0964DDDF858B0DDF85090F8
:107C8000119CA86B2CF0EAFE0090A86B00F0ACFEF3
:107C90000023019015E1642003FB00F115986FF0BB
:107CA0001802504301EB400E002006E1642100FB66
:107CB00001F26FF018050BFB05F102EB4105019E87
:107CC000DFF810C20EFB06F2009E009F05FB0622A5
:107CD00092FBFCF2019E159975430EFB175501EBC3
:107CE000D17195FBFCF502EB6102049911440BEB99
:107CF000DB7205EB6205059A1544069A914275DB25
:107D0000129A914272DA109A95426FDB139A954259
:107D10006CDA039A8AB3012A69D0DFF8B4A1D44699
:107D2000DAF8248098F9186098F9197006FB07F2C0
:107D3000DAF83470E71B7A4300FB062208EB0306EF
:107D40003244DAF81C601C32AE1BDAF804506E4381
:107D5000DAF82050671BDCF81450029507FB056524
:107D6000DCF81860A446891BDAF874603144564682
:107D70002944DAF840A0B56A9CE0FFE7544ED6F8F3
:107D800024C0D6F840809CF918209CF919705743FC
:107D90005F4300FB02726244F76AA446D21B376A53
:107DA0002244C91B77691C327943F769ED1B776858
:107DB00005FB0711756F2944B569491B2144B56A54
:107DC00012E0B8F1000F03D0B8F1010F03D007E0C3
:107DD0001678AE5D03E017780E78EF5D3E430E70C7
:107DE000521C491C0CF1010CCC45EADB64E0DFF8C5
:107DF000E0C0DCF82480C24698F91820029298F975
:107E000019607243DCF830604243A71B029E07FBF7
:107E1000062208EB03063244DCF820601C32AE1B5D
:107E2000DCF814506E43DCF81C50671BDCF804507F
:107E3000029507FB0565DCF81860891BDCF87460A7
:107E4000A44631442944224DD5F84080AD6A15E05E
:107E5000B8F1000F03D0B8F1010F03D007E0167896
:107E6000AE5D03E017780E78EF5D3E430E709AF931
:107E700018600CF1010C3244029E3144CC45E7DB22
:107E80001AE0BAF1000F03D0BAF1010F03D007E0F6
:107E90001678AE5D03E017780E78EF5D3E430E7006
:107EA00098F9186098F919700CF1010C06FB07227B
:107EB000029E3144CC45E4DB401C5845FFF6F6AE4B
:107EC0005B1C15988342FFF6E6AE07B0BDE8F08F65
:107ED00060000020A08601002DE9FF4F8B4E85B089
:107EE0000024D6F818C0DDE91278A3EB0C03A0EB50
:107EF0000C050893F0693B1A1293336A091AD01AD9
:107F0000A8EB03031393089B5A1B129B02F1010871
:107F10005E1A139B1B1A002A01DCA2F10108721CD5
:107F2000002E00DC721E5E1C9146002B00DC5E1EE3
:107F3000B24676430096754E08FB08F209FB09F33A
:107F4000B7680297F7680397D6F874E0D6F804C0CC
:107F5000D6F814B09A4244DB009EB24241DBB8F13D
:107F6000000F02DD0122009204E04FF0FF32C8F161
:107F700000080092089B1A440192AA4272D009FBA1
:107F800004F292FBF8F257180AFB04F292FBF8F2A3
:107F90000244002D17DB654515DA002F13DB029E26
:107FA000B74210DA002A0EDB039B9A420BDA159BCC
:107FB00073B102FB0BF207FB0C220EEB0503149FBF
:107FC000D65C3E43D654009A641C1544019AD4E70B
:107FD00002FB0BF207FB0C260EEB0502149BB354BD
:107FE000F1E7934249DB009A934246DBB9F1000F77
:107FF00002DD0122009204E04FF0FF32C9F10009D6
:108000000092129B1A4404928A427CD008FB04F22C
:1080100092FBF9F22A4401920AFB04F292FBF9F274
:108020001318019A002A18DB624516DA002914DBBE
:10803000029A914211DA002B0FDB039A93420CDA79
:10804000159A82B103FB0BF301FB0C32019E149FC6
:108050000EEB0603D65C3E43D654009A641C1144D2
:10806000049AD1E74FE003FB0BF301FB0C37019EB1
:10807000149A0EEB0603FA54EFE7BAF1000F02DD93
:108080000122009204E04FF0FF32CAF1000A009290
:10809000139B1A440492824235D008FB04F292FBEF
:1080A000FAF22A44019209FB04F292FBFAF2531805
:1080B000019A002A18DB624516DA002B14DB029ABB
:1080C000934211DA00280FDB039A90420CDA159ADA
:1080D0007AB100FB0BF203FB0C22019E149F0EEB06
:1080E0000603D65C3E43D654009A641C1044049A9E
:1080F000D1E700FB0BF603FB0C67019E149A0EEB15
:108100000603FA54F0E709B0BDE8F08F60000020E4
:10811000F0B5134D059CAE69801BEE69A1EB06011D
:108120002E6AA2EB060217D46E68B04214DA002958
:1081300012DBAF68B9420FDA002A0DDBED68AA4204
:108140000ADA074F7D6F7F6928447A4301FB0621D5
:108150001CB10A5C1A430A54F0BD0B54F0BD000078
:10816000600000202DE9FE4F002508225F49A8206D
:1081700001F0B2FA5D4E00203446307231465CA008
:108180002DF04AF908225C49A02001F0A5FA5BA174
:1081900030462EF0D9FB50B157495A4800F0F6FB53
:1081A00000287DD04FF008084746464645E056A1D6
:1081B00020462EF0C9FB58B14F49524800F0E6FB6B
:1081C00000286DD04FF0080847464646012534E0A8
:1081D0004FA120462EF0B8FB60B14A4846490C300A
:1081E00000F0D4FB002879D04FF00808102746464D
:1081F000022522E048A120462EF0A6FB60B14148AE
:108200003D49183000F0C2FB002867D04FF010083D
:1082100047464646032510E041A120462EF094FB38
:10822000E8B338483449243000F0B0FB002855D07A
:108230004FF0080820274646042502F09DFA2CF04E
:10824000B1FD70B32CF064FCC078FEF731FE02F093
:10825000BBFA04462CF05CFCC078A04244D92CF058
:1082600057FC00EBC400B0F904B02CF051FC00EB5B
:10827000C400B0F906902CF04BFC00EBC400B0F940
:1082800008A02CF045FC00EBC400274B847A009733
:10829000CDE90163434652464946584602E01FE095
:1082A0001CE021E0FEF74CFF2146284601F01AFDB4
:1082B0000020FEF77DFE2CF02BFCC1781BA02DF0DA
:1082C000ABF853464A4659461BA0CDE900452DF070
:1082D000A3F84FF4FA702DF035FB0120BDE8FE8FB6
:1082E00021461EA02DF098F80020F7E73E29002037
:1082F000543D272573270000520000203878387835
:1083000038410000E26B03083878387838420000C2
:1083100038783136783841003136313631364100DF
:1083200038783332783841003E190020546F746138
:108330006C3D25640000000052756E20783D256478
:108340002C793D25642C7A3D25642C6469723D2589
:10835000642C747970653D25640000004572726F6D
:1083600072205479706521203A2725732700000078
:108370004FF4807201A102482AF058BC41646300A6
:10838000656E0008114810B50068114CFF2801D92E
:10839000012000E0002060700E490F482EF0C5FA61
:1083A00010B10D48001F06E00A490C482EF0BDFA36
:1083B00030B10A48001FE060BDE810402DF0E0B980
:1083C000BDE8104006A02DF027B80000E0F7FF1F21
:1083D00038050020157603080450000804580008EA
:1083E0005265676564697420666F726D617420659B
:1083F00072726F722100000008202CF067B908200B
:108400002CF098B908202CF0C9B910202CF0FAB93A
:1084100008202CF039BA0000024951F82000024926
:10842000086170474829002098010020704700002B
:1084300002494A6A52F820000861704798010020FA
:108440007047000002494A6A02EB800008617047E9
:1084500098010020024951F8200002490861704744
:10846000702900209801002002490A6852F8200073
:108470000861704798010020024951F82000024924
:10848000486170474829002098010020704700008B
:1084900002494A6A52F8200048617047980100205A
:1084A0007047000002494A6A02EB80004861704749
:1084B00098010020024951F82000024948617047A4
:1084C000702900209801002002490A6852F8200013
:1084D00048617047980100200249034A096942F83F
:1084E0002010704798010020482900200249034AC3
:1084F000096942F820107047980100207029002077
:1085000002490A69096841F8202070479801002053
:108510000248D0E90421C0E9041270479801002004
:10852000064910B50A6802EB8000086004498842D9
:1085300003D304A02CF070FFFEE710BD98010020CB
:10854000902C00204572726F723A20537461636BF5
:10855000204F75742100000002490A68A2EB8000D8
:108560000860704798010020064A10B50649106857
:10857000884203D305A02CF04FFFFEE7116902C02B
:10858000106010BD980100208C2C00204572726F85
:10859000723A20537461636B204F757421000000A0
:1085A00003490868001F0860006808617047000000
:1085B0009801002002498A6802EB800088607047B9
:1085C00098010020014951F820000047B80100201F
:1085D000014951F820000047B40200207047000014
:1085E000084A10B5084B1168994203D307A02CF034
:1085F00013FFFEE7936808C11160516A01EB800028
:10860000906010BD98010020902C00204572726F80
:10861000723A20537461636B204F7574210000001F
:1086200003490868001F0860006888607047000000
:108630009801002001490020C8607047980100207F
:1086400070B5074C05460246002160682EF058F9C7
:10865000D4E9001303EB850008C1C4E9001070BD24
:108660009801002002494A68A2EB800048607047E8
:1086700098010020034A1169494208B151617047CD
:108680001161704798010020034A1169C94308B17C
:10869000516170471161704798010020054B01221C
:1086A000196918B101B100225A61704701B1002265
:1086B0001A61704798010020034A1169491C08B1EA
:1086C000516170471161704798010020034A116998
:1086D000491E08B15161704711617047980100202F
:1086E000044BD3E9042110B1881858617047501821
:1086F0001861704798010020044AD2E90413C91A8E
:1087000008B1516170471161704700009801002065
:10871000044BD3E9042110B15143596170474A43D6
:108720001A61704798010020044AD2E9041391FBB2
:10873000F3F108B151617047116170479801002051
:10874000064B10B5D3E9041291FBF2F402FB1411AD
:1087500008B1596110BD196110BD000098010020D9
:10876000044AD2E90413994008B15161704711617C
:108770007047000098010020044AD2E9041319410F
:1087800008B15161704711617047000098010020E5
:10879000044AD2E90413194008B1516170471161CC
:1087A0007047000098010020044AD2E904131943DD
:1087B00008B15161704711617047000098010020B5
:1087C000044AD2E90413594008B15161704711615C
:1087D000704700009801002010B5074C0123D4E930
:1087E000041220B1914200D00023636110BD914278
:1087F00000D00023236110BD9801002010B5074C64
:108800000123D4E9041220B1914200D10023636115
:1088100010BD914200D10023236110BD98010020BA
:1088200010B5074C0023D4E9042120B10AB101B1ED
:108830000123636110BD0AB101B10123236110BDA1
:1088400098010020084AD2E90413194328B109B15C
:10885000012000E000205061704709B1012000E0D4
:1088600000201061704700009801002010B5074CEF
:108870000123D4E9041220B1914200DC002363619A
:1088800010BD914200DC0023236110BD980100203F
:1088900010B5074C0123D4E9041220B1914200DA4B
:1088A0000023636110BD914200DA0023236110BDF3
:1088B0009801002010B5074C0123D4E9041220B11F
:1088C000914200DB0023636110BD914200DB002375
:1088D000236110BD9801002010B5074C0123D4E995
:1088E000041220B1914200DD0023636110BD91426A
:1088F00000DD0023236110BD9801002002460248DC
:1089000003C82DF0F1BF0000A8010020014803C8F2
:108910002EF038B8A801002070B50E4C06460C4D5C
:10892000E069D4E9041205EBC0102DF0EEFFE06918
:1089300005EBC0100EB1606100E02061E069401CF1
:108940000521B0FBF1F201FB1200E06170BD0000F7
:10895000906C00209801002004490A69002A03D184
:108960008A6802EB80008860704700009801002050
:1089700004490A69002A03D08A6802EB80008860F3
:108980007047000098010020704700002DE9F04179
:10899000134D144E0C46002202EB42035919EF5CB2
:1089A0004B7889783B441944B154521C082AF3DBB4
:1089B0000C4A0C49083A01F013FF0A490020083913
:1089C000225C0B5C9A4206D0214606482AF08CFBBA
:1089D0000020BDE8F081401C0828F1DB0120F8E709
:1089E000E8F7FF1F300300200E4A5A2804D8C0F1D0
:1089F0005A0032F8100070470A49B42801EB4001D0
:108A000002D831F8B40C06E0B0F5877F05D8C0F580
:108A1000877032F8100040427047A1F58051B1F8DC
:108A2000E40D7047E00000200348C06B00B1004730
:108A3000024903A02DF074B8AC030020396D03087F
:108A40004952513A25730D0A000000000348006C9A
:108A500000B10047024903A02DF062B8AC0300202A
:108A6000526D03084952513A25730D0A0000000067
:108A70000348406C00B10047024903A02DF050B8F4
:108A8000AC0300206B6D03084952513A25730D0A5F
:108A9000000000000348806C00B10047024903A0B9
:108AA0002DF03EB8AC030020846D03084952513AC2
:108AB00025730D0A000000000348C06C00B1004798
:108AC000024903A02DF02CB8AC0300209D6D0308D3
:108AD0004952513A25730D0A000000000348006D09
:108AE00000B10047024903A02DF01AB8AC030020E2
:108AF000B66D03084952513A25730D0A0000000073
:108B00000348406D00B10047024903A02DF008B8AA
:108B1000AC030020CF6D03084952513A25730D0A6A
:108B2000000000000348006F00B10047024903A0A5
:108B30002CF0F6BF2C040020D37003084952513AA0
:108B400025730D0A000000000348406F00B1004784
:108B5000024903A02CF0E4BF2C040020EC700308B1
:108B60004952513A25730D0A000000000348806FF6
:108B700000B10047024903A02CF0D2BF2C04002012
:108B8000057103084952513A25730D0A000000008F
:108B90000348C06F00B10047024903A02CF0C0BFDA
:108BA0002C0400201E7103084952513A25730D0A06
:108BB000000000000029016802D041F0010102E03C
:108BC0004FF6FE72114001607047000001684FF6D9
:108BD000FE72114001600021016041608160C1604E
:108BE0003349334A0839904203D1486840F00F00B6
:108BF00006E02F4A1432904204D1486840F0F00059
:108C0000486070472A4A2832904203D1486840F4AD
:108C10007060F5E7264A3C32904203D1486840F440
:108C20007040EDE7224A5032904203D1486840F448
:108C30007020E5E71E4A6432904203D1486840F450
:108C40007000DDE71A4A7832904203D1486840F05C
:108C50007060D5E7174A904204D1D1F8040440F07F
:108C60000F0007E0134A1432904206D1D1F80404F1
:108C700040F0F000C1F8040470470E4A28329042D8
:108C800004D1D1F8040440F47060F3E7094A3C329F
:108C9000904204D1D1F8040440F47040EAE7054A58
:108CA00050329042E8D1D1F8040440F47020E1E75A
:108CB0000800024008040240406880B2704700008B
:108CC000024600200549D30002D5D1F8001400E087
:108CD0000968114200D001207047000000000240E6
:108CE00030B5036847F6F07293430C6A8A682243F2
:108CF000D1E904452C4322438C692243CC692243A9
:108D00004C6A22438C6A22431A430260CA6842605A
:108D10000A6882604968C16030BD0021016041601D
:108D20008160C160016141618161C1610162416233
:108D300081627047022101482AF00EB8CC6A03080C
:108D40000348006800B10047024903A02CF0E8BEC8
:108D5000AC030020486C03084952513A25730D0AB0
:108D600000000000F0B40022144E154C334632626D
:108D700010461746A4F150015D6812E0235C202BD9
:108D800000D12754235C12B153B9002208E03BB153
:108D9000336A04EB000C012241F823C05B1C3362F0
:108DA000401CA842EAD36755326A002A04D001C9A0
:108DB000F0BC521E00F042B9F0BC7047D004002055
:108DC000B47400202DE9F041404F002401253E7885
:108DD0004FF0020C1EB3391DDFF8F4E006C9012E76
:108DE00028D03B46022E18D13E4677787AB3374DCD
:108DF0001E466D7845402B46012A46D0334DB44679
:108E00008E1CAD686D1CB24249D20EEB020101F816
:108E1000020C8CF80130CCF80850BDE8F081232812
:108E200006D0A528F9D187F800C07870BC60F4E7B7
:108E30003D70FBE732B13F280AD021280DD0012A2E
:108E400011D017E03F2815D1C7E90145E5E713E048
:108E5000012A0FD1C7F808C0DFE7022A0AD149B1B9
:108E6000FFF780FF06E0B42904D20EF80100491C88
:108E70007960D2E73C70D0E7052801D01C70CCE7C0
:108E800087F005009D605870C7E77060401EB328EA
:108E900003D2C6F808C07570BFE73470BDE76646F8
:108EA00003D1B5608CF80200B7E7CB1C9A42B4D16D
:108EB0005528F2D187F055007070B2788242ECD11B
:108EC000F269002AE9D002489047E6E7D004002082
:108ED000B474002038B5684601F018F9002819D09C
:108EE00029F032FE0C4A4FF47A74D2E90A351C1983
:108EF00045F10003241A8B4101D200231370C2E90B
:108F00000A019DF80000FFF75DFF684601F0FEF8DA
:108F10000028F6D138BD0000D004002000F094FEF7
:108F2000FFF7D8FF12202BF0B7FDF9E740F6B83273
:108F300003E00021491C9142FCD3401EF9D2704746
:108F400008B500208DF80000044605461E4E32E0AC
:108F500094B1012C16D0022C1AD0032C20D3F06827
:108F6000C01C84421CD219499DF800002144454090
:108F700001F8030C641C1EE09DF80000A5281AD11E
:108F8000012418E09DF80000552813D1022412E0B6
:108F90009DF80050F560681E0F280BD803240AE0E6
:108FA000F068C01C844206D19DF80000A84201D19F
:108FB00001F08AFE0024684601F0C4F80028C7D1F9
:108FC00001202BF069FDF6E77803002006710020F0
:108FD00004480122017801B100220270024903A075
:108FE0002CF01ABA78030020256C030825733A2563
:108FF0006400000010B5054905A02CF00DFA29F019
:10900000CFFCBDE8104008A02CF006BA8775030815
:1090100025733A2D2D2D2D2D2D2D2D2D2D2D2D2D35
:109020002D2D2D2D00000000436C65616E205265D2
:109030006765646974204F4B210000002DE9F047FB
:1090400000241A4F81460E469046082507EBC411AE
:1090500048462DF079FC10B107EBC41013E0641CF6
:10906000AC42F3D3124DA869B8B16869A8B1002425
:1090700010E0686900EBC41148462DF065FC40B172
:10908000686900EBC4104146C26F3046BDE8F04746
:109090001047641CA8698442EBD3BDE8F047034A3B
:1090A0000249183203A02CF0B7B900003C71030844
:1090B000D0040020257309093A25730070B50446D1
:1090C0000D460A490AA02CF0A7F9012D04D0BDE8ED
:1090D00070400DA02CF0A0B9206829F0ABFC2168ED
:1090E000BDE8704010A02CF097B900007775030818
:1090F00025733A2D2D2D2D2D2D2D2D2D2D2D2D2D55
:109100002D2D2D2D0000000044656C526567205008
:109110006172616D206E756D626572206973206584
:1091200072726F722100000044656C657465205294
:109130006567656469743A2573204F4B2100000010
:109140007CB500240D490EA02CF066F929F0CCFC6A
:109150000546014610A02CF05FF90BE06A4601A914
:10916000204629F0CFFC20B1DDE900210FA02CF032
:1091700053F9641CAC42F1D37CBD00006675030852
:1091800025733A2D2D2D2D2D2D2D2D2D2D2D2D2DC4
:109190002D2D2D2D00000000526567656469742037
:1091A000436F756E74203D202564000025733D25B6
:1091B000730000002DE9F041002408261AA02CF0CD
:1091C0002BF9224F07EBC41528462DF0FFFB08288A
:1091D00005F11802294601D31DA000E01EA02CF0C5
:1091E0001BF9641CB442EDD31D4DA869002819D0A9
:1091F0006869002816D0002411E0686900EBC410EB
:109200002DF0E4FB0828686900EBC41101F1180295
:1092100001D30FA000E010A02CF0FEF8641CA86998
:109220008442EAD3BDE8F081436F6D6D616E647373
:10923000206578706C61696E3A2D2D2D2D2D2D2DA8
:109240002D2D2D2D2D2D2D2D2D2D00003C710308A4
:109250002573093A25730000257309093A2573001F
:10926000D004002010B5054905A02CF0D5F82BF04E
:109270004FFC0078BDE8104001F090BE336C03084D
:109280002573000010B5054905A02CF0C5F82BF09A
:109290003FFC4078BDE8104001F080BE3A6C030806
:1092A0002573000010B5054905A02CF0B5F82BF08A
:1092B0002FFC8078BDE8104001F070BE416C0308BF
:1092C0002573000070B5054686B000200E46059057
:1092D0000190044602901B491BA02CF09DF8032E20
:1092E0002ED105A928682DF057FB48B301A9A8681D
:1092F0002DF052FB20B302A968682DF04DFBDDE98B
:10930000013217A005992CF087F8029905984518A5
:109310000BE0200703D114B110A02CF07DF815F854
:10932000011B18A02CF03CF8641C01988442F0D377
:109330000AA02CF071F815A02CF06EF806B070BDE4
:1093400016A0F9E73C75030825733A2D2D2D2D2D18
:109350002D2D2D2D2D2D2D2D2D2D2D2D00000000F1
:10936000416464726573733D3078252E38582C6FD4
:1093700066667365743D25642C636F756E743D2558
:1093800064000000252E3258200000005265616400
:109390004D656D65727920456E6421005061726182
:1093A0006D204E756D626572204572726F7221007C
:1093B00070B504460D460D490DA02CF02DF8012D79
:1093C00004D0BDE8704010A02CF026B8206829F029
:1093D000FDFB2168020004D0BDE8704011A02CF014
:1093E0001BB8BDE8704013A02CF016B858750308E0
:1093F00025733A2D2D2D2D2D2D2D2D2D2D2D2D2D52
:109400002D2D2D2D000000005265616452656720EE
:10941000506172616D204E756D6265722045727289
:109420006F722100526561645265673A25733D256C
:10943000730000004E6F7420466F756E64202573B4
:109440000000000029F05EBF2DE9FC4105460C46F6
:10945000154916A02BF0E0FF012C04D128682DF04F
:10946000B5FA102804D012A02BF0D6FFBDE8FC817D
:1094700000246F464FF00108296808EB4400085C9F
:1094800001F07EF90646286810F8140001F078F91A
:1094900006EB00103855641C082CEDDB68462BF0F9
:1094A0003FFA29F02FFFE1E7D66B03082573000090
:1094B00041726763206E756D626572204572726FCE
:1094C0007221000070B505460C46094909A02BF031
:1094D000A3FF012C04D0BDE8704007A02BF09CBF77
:1094E00028682AF00FFCBDE8704029F00BBF00008F
:1094F000CC6B03082573000041726763206E756DA5
:10950000626572204572726F7221000070B5044668
:109510000D460C490CA02BF07FFF022D01D010A0AE
:109520000BE0D4E9000129F017FD28B12168BDE85E
:10953000704013A02BF070BF15A0BDE870402BF059
:109540006BBF00004975030825733A2D2D2D2D2D75
:109550002D2D2D2D2D2D2D2D2D2D2D2D00000000EF
:10956000577269746552656720506172616D204E53
:10957000756D626572204572726F72210000000085
:1095800057726974655265673A2573204F4B210005
:109590005772697465526567204572726F72210057
:1095A0002DE9FC470746DDE90A890D4610461E46AF
:1095B0002BF050FB044628462BF062FB054638464C
:1095C0002BF0E2FA334622462946CDE90089FDF721
:1095D00005FDBDE8FC87000070B592B001210420B4
:1095E00029F0F6FD0121084629F0CEFD01214802AF
:1095F00029F0EEFD0B208DF8400003208DF841008E
:109600008DF8420001258DF8435010A829F06EF91D
:109610000220ADF8400000248DF8434010A92A48EC
:1096200001F018F8294E3046FFF7D0FA284800908C
:10963000284801A931C128020494CDE905408000E1
:109640000790202008900002CDE9090469463046C1
:10965000FFF746FB01213046FFF7ACFA8DF830509A
:109660000B948DF831504FF46020CDE90D04184C67
:109670008DF83C504C3C0BA92046FDF781FB0122A4
:10968000052311462046FDF79FFB01212046FDF7EB
:109690005FFB01212046FDF751FB2046FDF7CEFB85
:1096A0002046FDF766FB0028FAD12046FDF7D5FBE2
:1096B0002046FDF757FB0028FAD101212046FDF78F
:1096C000C2FB12B070BD000000080140080002405B
:1096D0004C240140500000202DE9F04788461646F2
:1096E0000546A02401F0E6FB00281AD0204601F030
:1096F000BBFB01F013FC88B1284601F0B5FB01F07B
:109700000DFC01F0D7FBA12001F0AEFB01F006FC3F
:109710004FF0800A244F4FF0400939E001F0EAFB96
:109720000020BDE8F08708250024C7F810AC0FE042
:109730006006040EC7F8149C01F008FCC7F8109CE2
:1097400001F004FCD7F8080C000601D544F0010430
:109750002800A5F10105EDB2EAD14D46C7F8149CE9
:1097600088F80040012EC7F8149C17D001F0EEFBDA
:10977000C7F814AC01F0EAFBC7F8105C01F0E6FB97
:10978000C7F8145C01F0E2FB761E08F10108B6B2DE
:10979000002EC8D101F0AEFB0120C2E701F0D6FBDC
:1097A000C7F810ACE6E70000000001402DE9F041E9
:1097B0000D4614460646A02701F07CFB00280ED07B
:1097C000384601F051FB01F0A9FB28B1304601F009
:1097D0004BFB01F0A3FB0AE001F08CFB0020BDE88D
:1097E000F081287801F040FB01F098FB6D1C20000F
:1097F000A4F10104A4B2F4D101F07CFB0120EEE756
:1098000008B50121082029F0E3FCC020ADF80000D4
:1098100003208DF8020014208DF8030069460248E9
:1098200000F018FF08BD0000000C0140014800884E
:1098300070470000500000200349097809B100205A
:10984000704700F003B800002000002010B50A4A5D
:1098500020B1012804D0022807D108E0012100E04E
:109860000221104600F070FF18B1002010BD042145
:10987000F7E7012010BD0000001001400249002060
:10988000087000F003B800002000002038B5012166
:10989000102029F09DFC0120ADF8000048200B4C61
:1098A0008DF803006946204600F0D4FE0221ADF891
:1098B00000106946204600F0CDFE0421ADF80010EE
:1098C0006946204600F0C6FE38BD00000010014089
:1098D000F8B54FF40060ADF800001024224E8DF86A
:1098E000034003258DF802506946304600F0B2FE71
:1098F0000121ADF800106946304600F0ABFE0220B1
:10990000ADF800006946304600F0A4FEA001ADF8B5
:1099100000006946304600F09DFE2026ADF800604C
:10992000124F8DF803408DF802506946384600F01A
:1099300091FEADF800406946384600F08BFE80206D
:10994000ADF8000018208DF80300094C8DF8025086
:109950006946204600F07EFEADF80060694620466C
:1099600000F078FEF8BD0000000C0140001001403E
:1099700000080140F8B54FF40060ADF80000102475
:10998000224E8DF8034003258DF80250694630467B
:1099900000F060FE0121ADF800106946304600F08D
:1099A00059FE0220ADF800006946304600F052FE34
:1099B000A001ADF800006946304600F04BFE2026BD
:1099C000ADF80060124F8DF803408DF802506946E3
:1099D000384600F03FFEADF800406946384600F0DA
:1099E00039FE8020ADF8000018208DF80300094CE6
:1099F0008DF802506946204600F02CFEADF800605C
:109A00006946204600F026FEF8BD0000000C01402B
:109A10000010014000080140F8B54FF40060ADF8B7
:109A200000001024224E8DF8034003258DF80250CB
:109A30006946304600F00EFE0121ADF8001069467F
:109A4000304600F007FE0220ADF8000069463046BF
:109A500000F000FEA001ADF800006946304600F0BD
:109A6000F9FD2026ADF80060124F8DF803408DF807
:109A700002506946384600F0EDFDADF800406946F9
:109A8000384600F0E7FD8020ADF8000018208DF882
:109A90000300094C8DF802506946204600F0DAFDBB
:109AA000ADF800606946204600F0D4FDF8BD000026
:109AB000000C014000100140000801402DE9F8436E
:109AC0004FF48070ADF800001024DFF89C808DF812
:109AD000034003258DF802506946404600F0BAFD68
:109AE0000120224EADF800006946304600F0B2FD7C
:109AF0000221ADF800106946304600F0ABFDA00130
:109B0000ADF800006946304600F0A4FDE001ADF874
:109B100000006946304600F09DFD2026ADF800604B
:109B2000134F8DF803408DF802506946384600F017
:109B300091FDADF800406946384600F08BFD80206D
:109B4000ADF8000018208DF803008DF8025069462A
:109B5000404600F07FFDADF800606946404600F0E9
:109B600079FDBDE8F883000000080140000C0140C9
:109B700000100140F8B54FF40060ADF8000010246B
:109B8000224E8DF8034003258DF802506946304679
:109B900000F060FD0121ADF800106946304600F08C
:109BA00059FD0220ADF800006946304600F052FD34
:109BB000A001ADF800006946304600F04BFD2026BC
:109BC000ADF80060124F8DF803408DF802506946E1
:109BD000384600F03FFDADF800406946384600F0D9
:109BE00039FD8020ADF8000018208DF80300094CE5
:109BF0008DF802506946204600F02CFDADF800605B
:109C00006946204600F026FDF8BD0000000C01402A
:109C1000001001400008014010B501218C072046CA
:109C20002BF01BFB002807D0012120462BF008FB5E
:109C3000BDE8104000F0ACBB10BD0000014840681A
:109C4000406800470000002010B50448FFF734F8D2
:109C50000349C0F18000486010BD00005800024078
:109C60001C05002070B50C4E04460D463046FEF72C
:109C7000ADFF0A480146C56044603046FFF730F842
:109C80000122802106482BF06DFC3046BDE8704073
:109C90000121FEF78FBF0000440002400879002038
:109CA0000038014070B50C4E04460D463046FEF7B4
:109CB0008DFF0A480146C56044603046FFF710F842
:109CC0000122802106482BF04DFC3046BDE8704053
:109CD0000121FEF76FBF00008000024054180020F1
:109CE0000044004010B50F4C0528207061700AD266
:109CF000DFE800F003060F12150000F01DFE01E082
:109D000000F036FE6060BDE81040074907A02BF068
:109D100083BB00F0D9FDF5E700F0BAFDF2E700F0F3
:109D2000EFFDEFE700000020540500204469737048
:109D30006C61794164643D3078252E38580000000C
:109D400070B52948FEF7E9FF27482849102501602A
:109D50002749C0E901150C210024C0E90314802122
:109D60004161490081618900C0E90714C900C0E967
:109D70000914204E3046FEF729FF1B493046FEF7F6
:109D8000AFFF19482C3029F023FF17494FF440400A
:109D90002C3108804FF482704880E8018880CC80A4
:109DA0000C81801048818D81CC81104C0D820C3C3F
:109DB000204629F0BDFE0C4920462C3129F0E2FE58
:109DC0000021204629F0FAFE01220221204629F036
:109DD000A7FE0121204629F099FE3046BDE87040DB
:109DE0000121FEF7E7BE0000541700200C300140AF
:109DF000540500203000024070B52948FEF78DFF61
:109E000027482849102501602749C0E90115182174
:109E10000024C0E903148021416149008161890067
:109E2000C0E90714C900C0E90914204E3046FEF706
:109E3000CDFE1B493046FEF753FF19482C3029F060
:109E4000C7FE17494FF440402C3108804FF4827010
:109E50004880E8018880CC800C81801048818D8109
:109E6000CC81104C0D820C3C204629F061FE0C493F
:109E700020462C3129F086FE0021204629F09EFE46
:109E800001220221204629F04BFE0121204629F023
:109E90003DFE3046BDE870400121FEF78BBE00005C
:109EA000941700200C30014054050020300002407F
:109EB00070B52948FEF731FF274828491025016071
:109EC0002749C0E9011504210024C0E903148021B9
:109ED0004161490081618900C0E90714C900C0E9F6
:109EE0000914204E3046FEF771FE1B493046FEF73E
:109EF000F7FE19482C3029F06BFE17494FF440400B
:109F00002C3108804FF482704880E8018880CC8032
:109F10000C81801048818D81CC81104C0D820C3CCD
:109F2000204629F005FE0C4920462C3129F02AFE56
:109F30000021204629F042FE01220221204629F07C
:109F4000EFFD0121204629F0E1FD3046BDE87040DB
:109F50000121FEF72FBE0000801800200C300140C8
:109F6000540500203000024070B52848FEF7D5FEA9
:109F700026482749102501602649C0E9011500241B
:109F80008021C560C0E90441490081618900C0E9C0
:109F90000714C900C0E909141F4E3046FEF716FE2B
:109FA0001A493046FEF79CFE18482C3029F010FE66
:109FB00016494FF440402C3108804FF4827048809D
:109FC000E8018880CC800C81801048818D81CC8113
:109FD0000F4C0D820C3C204629F0AAFD0B4920466F
:109FE0002C3129F0CFFD0021204629F0E7FD012288
:109FF0000221204629F094FD0121204629F086FD0A
:10A000003046BDE870400121FEF7D4BDC0180020E5
:10A010000C300140540500203000024070B5294842
:10A02000FEF77BFE27482849102501602749C0E933
:10A03000011530210024C0E9031480214161490049
:10A0400081618900C0E90714C900C0E90914204EE4
:10A050003046FEF7BBFD1B493046FEF741FE19486E
:10A060002C3029F0B5FD17494FF440402C310880C1
:10A070004FF482704880E8018880CC800C81801089
:10A0800048818D81CC81104C0D820C3C204629F0FA
:10A090004FFD0C4920462C3129F074FD002120464B
:10A0A00029F08CFD01220221204629F039FD0121F1
:10A0B000204629F02BFD3046BDE870400121FEF717
:10A0C00079BD0000001900200C300140540500202B
:10A0D0003000024010B54FF0804450B101221146CB
:10A0E00020462BF0C6F82046BDE8104001212BF099
:10A0F000AAB8002120462BF0A6F800220121204614
:10A100002BF0B7F8BDE81040FFF798BD10B5044636
:10A110000948FEF7D1FDC0F180020848416891422C
:10A1200008D0074A525C491C227001F07F0141604F
:10A13000012010BD002010BD580002401C05002069
:10A140008878002010B504460948FEF7B5FDC0F137
:10A15000800208484168914208D0074A525C491C75
:10A16000227001F07F014160012010BD002010BD70
:10A170006C00024024000020D41700202DE9F04399
:10A1800085B00121052029F023F80121880329F059
:10A190001FF80121084628F0F7FF4FF40070ADF8D2
:10A1A000100003208DF812001820324C8DF8130097
:10A1B00004A9204600F04EFA2115ADF81010042134
:10A1C0008DF8131004A9204600F044FA00254FF43E
:10A1D00061200090ADF808500C20DFF89C80ADF8AD
:10A1E0000450ADF80A00ADF80650ADF80C506946C1
:10A1F00040462BF0BFF9DFF884904846FEF7E6FCB6
:10A200001F4C08F10407211DA4F18000802627605F
:10A2100061C1C4E904562020A561C4E907504FF488
:10A220004050C4E9090521464846FEF759FD012280
:10A23000402140462BF096F901214846FEF7BAFC32
:10A24000012140462BF084F90C481438FEF7BEFC7F
:10A2500010202760A060C4E90456A5610002E561F2
:10A26000C4E9085007490120A562087005B0BDE89F
:10A27000F08300000008014000380140580002400F
:10A28000087900201C0500202DE9F04385B001214C
:10A29000052028F09DFF0121480428F081FF0121BD
:10A2A000084628F071FF0424ADF8104003208DF813
:10A2B00012001820314D8DF8130004A9284600F033
:10A2C000C9F90821ADF810108DF8134004A92846EB
:10A2D00000F0C0F900254FF4E1300090ADF80850CF
:10A2E0000C20DFF89C80ADF80450ADF80A00ADF802
:10A2F0000650ADF80C50694640462BF03BF9DFF8AC
:10A3000084904846FEF762FC1F4C08F10407211DAB
:10A31000A4F180008026276061C1C4E90456202092
:10A32000A561C4E907504FF44050C4E9090521462E
:10A330004846FEF7D5FC0122402140462BF012F999
:10A3400001214846FEF736FC012140462BF000F97A
:10A350000C481430FEF73AFC10202760A060C4E9D6
:10A360000456A5610002E561C4E9085007490120CF
:10A37000A562087005B0BDE8F08300000008014048
:10A38000004400406C0002405418002024000020CB
:10A39000014840680068004700000020054909782E
:10A3A000002906D00449B1F800285206FBD5A1F8CF
:10A3B000040870471C0500200030014005494A7818
:10A3C00049681AB1012A03D1C96808478968FCE7BE
:10A3D00070470000000000201FB501218C072046B7
:10A3E0002AF02EFF1249202029F072F90121084697
:10A3F00028F0D6FE1C208DF80C0001218DF80D10E0
:10A400008DF80E108DF80F1003A828F06FFA482071
:10A41000ADF804005A20ADF800000021ADF8061098
:10A42000ADF80210694620462AF02CFF1FBD00003F
:10A43000199C000810B54FF4005401E000F084FCB2
:10A440002046FEF73DFC0028F8D010BD10B54FF0B7
:10A45000007401E000F078FC2046FEF731FC002893
:10A46000F8D010BD704710B5FFF708FAFFF7B4FF3A
:10A47000FFF7C6F9BDE81040FFF7AEB80348806AA1
:10A4800000B10047024903A02BF04ABBAC030020F7
:10A49000E46C03084952513A25730D0A000000008C
:10A4A0000348006B00B10047024903A02BF038BB02
:10A4B0002C0400209F6F03084952513A25730D0A5E
:10A4C000000000000348C06A00B10047024903A031
:10A4D0002BF026BBAC030020F56C03084952513A1F
:10A4E00025730D0A000000000348006B00B100470F
:10A4F000024903A02BF014BBAC030020066D030837
:10A500004952513A25730D0A000000000348406B80
:10A5100000B10047024903A02BF002BBAC030020AE
:10A52000176D03084952513A25730D0A00000000C7
:10A530000348806B00B10047024903A02BF0F0BA3A
:10A54000AC030020286D03084952513A25730D0AC7
:10A55000000000000348C06E00B10047024903A09C
:10A560002BF0DEBAAC030020576E03084952513A73
:10A5700025730D0A0000000001490020C8607047E3
:10A580009801002070B505460D4C01E000F0DCFBA1
:10A59000E168C807FAD1206940F0020020616561D6
:10A5A000206940F04000206101E000F0CDFBE06850
:10A5B000C007FAD1206941F6FD710840206170BDE5
:10A5C000002002400349002801DAC8647047C860CF
:10A5D00070470000002002400348006A00B10047B5
:10A5E000024903A02BF09CBAAC030020C46C030802
:10A5F0004952513A25730D0A0000000004480169D0
:10A6000041F080010161016D41F0800101657047F9
:10A6100000200240044803494160044A426041640A
:10A62000426470472301674500200240AB89EFCDAB
:10A630000348006D00B10047024903A02BF070BA37
:10A640002C040020517003084952513A25730D0A19
:10A6500000000000F0B5CC78002204F00F03E406FF
:10A6600001D58C7823430C884FF00F0C14F0FF0FAA
:10A670004FF0010E1AD005680E880EFA02F426403B
:10A68000A6420FD196000CFA06F7BD4303FA06F670
:10A690003543CE78282E02D0482E02D002E0446105
:10A6A00000E00461521C082AE6D305600A88FF2AEC
:10A6B0001DD94568002202F108060EFA06F40E883C
:10A6C0002640A6420FD196000CFA06F725EA0707A6
:10A6D00003FA06F5CE783D43282E00D14461CE78AA
:10A6E000482E00D10461521C082AE4D34560F0BD15
:10A6F000F0B5144C002801DAE36900E06368420D0C
:10A70000120185B2C0F301579540C0F30346032FF1
:10A7100005D0C2020AD50322B240934307E023F0DA
:10A720007062636823F07063636002E0AB4343F0E0
:10A73000706201B12A43002801DAE261F0BD626073
:10A74000F0BD0000000001400246002092680A426D
:10A7500000D00120704741617047016170470000DF
:10A7600020B10449012803D008687047FFF75EB89C
:10A7700048687047A00300200048704700B00008F8
:10A78000A0F13001092901D8C8B27047A0F16101D8
:10A79000052901D8573804E0A0F14101052902D864
:10A7A0003738C0B27047002070470000002902D03F
:10A7B00001A02AF031BE704752656376446174612E
:10A7C0003D25643A000000000148406870470000E1
:10A7D000780300200149D1E908017047780300207F
:10A7E0007FB506460D461446284827F0C7FC0C22C4
:10A7F0003146264828F032F808222946234828F016
:10A800002DF86946214827F095FC9DF800009DF839
:10A810000F100844C04320709DF807009DF80E10EB
:10A82000084480F00F0060709DF804009DF80D1042
:10A83000084480F0F000A0709DF802009DF80C1014
:10A84000084480F00300E0709DF805009DF80B10AF
:10A85000084480F0100020719DF801009DF80A1056
:10A86000084480F0110060719DF803009DF8091004
:10A87000084480F03800A0719DF806009DF808108B
:10A88000084480F0AA00E0717FBD000090700020B5
:10A8900010B5012141F23C0028F09AFC084C20211F
:10A8A0002046FFF75AFFFFF709F9FFF75DFB10207D
:10A8B00029F0A8FF20212046FFF74DFF014810BDD9
:10A8C00000100140AC6A030810B5012141F23C00C0
:10A8D00028F07EFC084C20212046FFF73EFFFFF7C2
:10A8E00049F8FFF789FA082029F024FF20212046A3
:10A8F000FFF731FF014810BD001001408C6A0308CA
:10A9000010B5012141F23C0028F062FC084C2021E6
:10A910002046FFF722FFFFF72DF9FFF77FFB082006
:10A9200029F0B2FF20212046FFF715FF014810BD96
:10A9300000100140BC6A030810B5012141F23C003F
:10A9400028F046FC084C20212046FFF706FFFEF7C2
:10A95000BFFFFFF7F5F9082029F0B8FE20212046B7
:10A96000FFF7F9FE014810BD001001407C6A0308A2
:10A9700010B5012141F23C0028F02AFC084C2021AE
:10A980002046FFF7EAFEFFF747F8FFF791FA0820A5
:10A9900029F004FF20212046FFF7DDFE014810BD0D
:10A9A000001001409C6A03080A4910B58A78887033
:10A9B00030EA02040DD0E00701D0FEF753FCA007F7
:10A9C00001D5FEF75FFC600703D5BDE81040FEF738
:10A9D00069BC10BD780300202DE9F041244B0746E7
:10A9E00004462520234D18700120286128E028699D
:10A9F0001E54401C2861102826D22078632826D0B7
:10AA000010DC4F2823D006DC432820D044281ED059
:10AA1000462815D11BE0532819D0552817D058289F
:10AA20000ED114E0732812D006DC64280FD06628FB
:10AA30000DD06F2804D10AE0752808D0782806D0F8
:10AA400014F8016F002ED2D1781CBDE8F0812A697C
:10AA5000002098540648EA68783810440A460449A9
:10AA60002BF06EF8E9680844E8602046EDE7000046
:10AA7000F4750020D00400202749086F401C0867A7
:10AA80001F2801DB002008671F2843DA401C1D280F
:10AA900001DBC01C02E0182800DB801CC11700EBA2
:10AAA000917121F00302801AC1F38701C0B2092914
:10AAB00030D2DFE801F01D05090B11162022270016
:10AAC000032101EB80001BE00F2117E0C0F1030020
:10AAD000332141EA800013E0C0F1030040F0300070
:10AAE0000EE0032805D0C0F10300302101EA001078
:10AAF000704704207047800002E00C2141EA0010FA
:10AB0000C0B27047C0F10300810041EA001000F0BC
:10AB10003C00704700207047600000202DE9F05F86
:10AB2000DFF864810024574ED8F840508A4606EB7F
:10AB3000C5196D1C032695FBF6F706FB17559346C2
:10AB4000234622462146A446C8F8405005E0401C52
:10AB5000242D0BD009F80450641C0578002DF6D183
:10AB60000021484609F80410BDE8F09F0578BDB300
:10AB7000EDB2401C33B1012B0FD0022B1AD0032BA6
:10AB800027D11DE0462D02D0432D02D064E052466D
:10AB900001E0AAEB0B0201231BE02B2D07D02D2D8A
:10ABA00005D02A2D03D02F2D01D0252D54D1AC4610
:10ABB00002230EE0303D092D0BD82946032308E07F
:10ABC000A5F13006092E0CD801EB810105EB4101FE
:10ABD00030390578002DCBD1012B4CD0032B2AD056
:10ABE0003AE02B2D07D02D2D05D02A2D03D02F2D67
:10ABF00001D0252D30D1BCF12B0F0ED006DCBCF1DD
:10AC0000250F13D0BCF12A0F26D10AE0BCF12D0F7D
:10AC100005D0BCF12F0F1FD105E00A44C7E7521A37
:10AC2000C5E74A43C3E792FBF1F2C0E792FBF1F3B9
:10AC300001FB1322BBE7BCF12B0F0FD006DCBCF1EC
:10AC4000250F14D0BCF12A0F06D10BE0BCF12D0F5B
:10AC500006D0BCF12F0F07D00CA085E70A440AE00C
:10AC6000521A08E04A4306E092FBF1F203E092FB3D
:10AC7000F1F001FB102209EB040005A12AF074FF9A
:10AC8000484671E7106F0020E40200200000000039
:10AC9000256400000648017839B18068054900EB59
:10ACA000800001EBC0001830704703A0704700001F
:10ACB000B8040020307100204265666F7265205430
:10ACC00061736B0027F040BF7CB51D4C1D4D227891
:10ACD000D5E90210012A1DD0022A22D06978002964
:10ACE0001ED1202A1CD10A281AD10A21204628F078
:10ACF000DDFF621C00206946135C0B54401C0828D1
:10AD0000FAD3DDE90001C5E90801607ABDE87C40BD
:10AD1000FFF74ABE012803D1002901D10020687045
:10AD20007CBD0228FCD10129FAD160786860401C02
:10AD30006070BDE87C400221014828F0B7BF0000E8
:10AD400006710020780300202DE9F041174FBE68FE
:10AD50003878344620B3DFF858807868641CB4FB38
:10AD6000F0F100FB114427F0EFFE04EB840308EB45
:10AD7000C305EA68002AF0D1D5E90423801A994175
:10AD8000EBD3A6420FD0BC60FBF7FEF906EB8601C1
:10AD900008EBC10029467A69BDE8F041FBF7E2B94A
:10ADA000401C3228FCD3BDE8F0810000B80400202C
:10ADB00030710020FFF76EFF014602A02AF0B0FEBE
:10ADC000FEE700004572726F7220486172643A2794
:10ADD000257327210D0A00000348006900B10047D0
:10ADE000024903A02AF09CBE2C040020106F030827
:10ADF0004952513A25730D0A000000000348C0680B
:10AE000000B10047024903A02AF08ABE2C040020AA
:10AE1000FD6E03084952513A25730D0A00000000E7
:10AE20000348806900B10047024903A02AF078BEB8
:10AE30002C040020366F03084952513A25730D0A3D
:10AE4000000000000348406900B10047024903A028
:10AE50002AF066BE2C040020236F03084952513AA1
:10AE600025730D0A000000002DE9F0410824054675
:10AE70004FF0800840270E4E11E000F067F82806DA
:10AE8000404602D5C6F8100C01E0C6F8140C68065E
:10AE9000050E00F05BF8C6F8107C00F057F82000B3
:10AEA000A4F10104E4B2C6F8147CE6D1BDE8F08157
:10AEB0000000014070B50E4C8025A5604FF04000A9
:10AEC000A06000F043F82068A4F60844000607D507
:10AED000C4F8145C00F03AF8D4F8080C000601D568
:10AEE000002070BDC4F8145C00F030F8012070BD83
:10AEF000080C014070B5084C4026666000F026F84A
:10AF00008025656000F022F8266000F01FF82560BB
:10AF1000BDE8704000F01AB8100C014070B50A4C42
:10AF20004025E56000F012F88020A06000F00EF8E7
:10AF3000A56000F00BF82068E560000601D5002050
:10AF400070BD012070BD0000080C014040F2DC50D3
:10AF5000401EFDD27047000002494CF6CC4008600C
:10AF6000704700000030004002494AF6AA200860FD
:10AF70007047000000300040014948607047000001
:10AF800000300040014988607047000000300040F8
:10AF9000014908607047000000300040012807D0D8
:10AFA000022807D0032807D0042807D129F09CBD28
:10AFB00029F08EBEFEF70CB829F076BE704770B54A
:10AFC0000024234608E0CD18EE782D6866F31F654F
:10AFD00040F82450641C1B1D9342F4D370BD000044
:10AFE00001A02AF09DFDFEE74572726F72204D654B
:10AFF0006D210D0A0000000070477047FFF7B4BFD5
:10B00000658734122C0000000C000000380000009E
:10B01000A0010000D8010000E01A0000B81C0000E8
:10B0200000000000B81C00004C44000003040201B2
:10B0300000000000000000017265640000000000D4
:10B0400000000000000000000030000000300000A0
:10B050000000000000000000677265656E000000DF
:10B060000000000000000000000C0000000C0000C8
:10B070000000000000000000626C75650000000028
:10B0800000000000000000000003000000030000BA
:10B09000000000000000000079656C6C6F77000014
:10B0A0000000000000000000003C0000003C000028
:10B0B00000000000000000006379616E00000000E5
:10B0C0000000000000000000000F0000000F000062
:10B0D0000000000000000000707572706C650000D8
:10B0E00000000000000000000032000000320000FC
:10B0F000000000000000000077686974650000002F
:10B100000000000000000000003F0000003F0000C1
:10B1100000000000000000007265642D7365726914
:10B12000657300000000000000303132333B3F0007
:10B130000000000000000000677265656E2D7365F9
:10B1400072696573000000000004080C1C2C3F00AD
:10B150000000000000000000626C75652D736572D0
:10B160006965730000000000000203071B2B3F000D
:10B17000000000000000000079656C6C6F772D7393
:10B1800065726965730000000024383C3D3E3F0055
:10B1900000000000000000006379616E2D7365728D
:10B1A000696573000000000000070B0F1F2F3F00B0
:10B1B00000000000000000005247422D73657269D4
:10B1C00065730000000000000030353C2D0C2D0F91
:10B1D0001B03370000000000387838783800000082
:10B1E00000000000000000006000000043000000BC
:10B1F00008080803020004FF818181818181FF81A9
:10B20000000000000000818100000000000081813A
:10B21000000000000000818100000000000081812A
:10B22000000000000000818100000000000081FF9C
:10B23000818181818181FF0048454C4C4F00000095
:10B24000000000000000000060000000430000005B
:10B2500008080803020002EAAAAAAAEA0A000001F2
:10B2600000010101000000010001000100000001D7
:10B2700001010101000000000000000000000001C9
:10B2800001010101010100000000010000000001B6
:10B290000101010101010000317838783800000017
:10B2A0000000000000000000280000000B0000006B
:10B2B00001080803020001FF818181818181FF0073
:10B2C000330000000000000000000000000000004B
:10B2D000280000000B000000080108030200043CE5
:10B2E0004202023C02423C0032000000000000002A
:10B2F0000000000000000000280000000B0000001B
:10B30000080108030200027E2010080402423C00EB
:10B3100031000000000000000000000000000000FC
:10B32000280000000B000000080108030200017E55
:10B330000808080808281800474F0000000000000F
:10B340000000000000000000280000000B000000CA
:10B3500008010803020005629595BD85858270008D
:10B36000776174657266616C6C31000000000000EA
:10B370007C0000005E0000000804080405000103D2
:10B3800005068081808280838084116011126012A2
:10B3900013601314601411601112601213601314FF
:10B3A00060141160111260121360131460141160A4
:10B3B00011126012136013146014116011126012E4
:10B3C00013601314601411601112601213601314CF
:10B3D000601480818082808380840000387838788F
:10B3E000310000000000000000000000200000000C
:10B3F0000400000008010806010180804172726F9C
:10B40000777335000000000000000000D400000049
:10B41000B500000008080804060001020304051135
:10B420001213141540111213141540111213141590
:10B430004011121314153011121314152011121388
:10B440001415201112131415201112131415401184
:10B450001213141583301112131415401112131402
:10B460001583301112131415401112131415833063
:10B4700011121314153011121314158330111213F5
:10B4800014152011121314158330111213141520E2
:10B4900011121314158330111213141520111213E5
:10B4A00014154011121314154011121314154011E4
:10B4B0001213141530111213141520111213141530
:10B4C000201112131415201112131415300000004E
:10B4D00063726F73737769736538646F740000000B
:10B4E000200000000300000001080103010100002A
:10B4F000766572746963616C38646F740000000073
:10B500002000000003000000010108030101000009
:10B5100034737472697000000000000000000000C5
:10B52000280000000B0000000808080602000111B6
:10B5300060118300116011004C4F5645000000005F
:10B540000000000000000000400000002300000098
:10B55000200801030200017C1E0C3E04211201049C
:10B5600021211F0421212104212121041E211E0447
:10B5700000000004000000003344385300000000C5
:10B580000000000000000000400000002300000058
:10B59000200801030200013C3E3C3C424242424042
:10B5A000424240404242203C423C1C404242024215
:10B5B0004242423C3E3C3C0063756265616D7031C5
:10B5C00000000000000000002C0000000E00000041
:10B5D0000808080602000181B6050C056C050C057B
:10B5E00081B6000063756265616D70320000000015
:10B5F000000000004C0000002E00000008080806B3
:10B6000002000181240908090809080948090803FA
:10B610000403080304030809480908030403080392
:10B6200004030809480908090809080981240000D9
:10B6300063756265616D70330000000000000000FA
:10B640006000000043000000080808030200010039
:10B6500000000000000000007E7E7E7E7E7E0000F6
:10B660007E424242427E00007E424242427E0000D2
:10B670007E424242427E00007E424242427E0000C2
:10B680007E7E7E7E7E7E00000000000000000000C6
:10B6900063756265616D7034000000000000000099
:10B6A000600000004300000008080803020001FFDA
:10B6B000FFFFFFFFFFFFFFFF818181818181FFFF8E
:10B6C000818181818181FFFF818181818181FFFF72
:10B6D000818181818181FFFF818181818181FFFF62
:10B6E000818181818181FFFFFFFFFFFFFFFFFF005D
:10B6F0003878387833320000000000000000000085
:10B7000040000000230000002008010302000100A7
:10B710000000000E7080F3518A521491890C248E1F
:10B72000718C43518A1284118840940E708063009A
:10B7300043554245000000000000000000000000EA
:10B7400040000000230000002008010302000178EF
:10B75000381E1F844422010444220104441E1F0495
:10B760004422018444220178441E1F00000000008E
:10B770006D6574656F72000000000000000000003D
:10B780002C0000000D00000001080101080001026A
:10B790000304050607705634120000003878387428
:10B7A000657374000000000000000000200000002D
:10B7B00004000000010808060101808049490000DA
:10B7C0000000000000000000000000005000000029
:10B7D0003100000008080804070001020304050600
:10B7E0008180810683302660268360256025836002
:10B7F0002560258360246024836023602383602286
:10B800006022834061206181900000005858000050
:10B810000000000000000000000000004C000000DC
:10B820002E000000080808040700010203040506B2
:10B8300081B026602683504640468330652065836C
:10B840001081048300810383008102831021202161
:10B8500020212021859000005555000000000000A7
:10B8600000000000000000005C000000400000003C
:10B8700008080804070001020304050681906620F9
:10B880006683102640464026830025404540258398
:10B890000025404540258300244044402483002364
:10B8A0004043402383002240424022830021404104
:10B8B000402181803478347834000000000000009A
:10B8C0000000000020000000040000000404040642
:10B8D00001018080334438000000000000000000B7
:10B8E000000000006000000043000000080808039A
:10B8F000020005718A8A728A8970000101010101C2
:10B900000100000000000000000000000101000133
:10B910000100000100000100000100010000010021
:10B920000001000100000000000100000100000013
:10B9300001000000656D70747900000000000000D7
:10B9400000000000200000000400000008080806B5
:10B9500001008400387831783800000000000000D1
:10B96000000000002000000004000000080108069C
:10B9700001018080422D4355424500000000000037
:10B9800000000000600000004300000008080803F9
:10B99000020001FFFFFFFFFFFFFFFF818181818127
:10B9A0008181818181818181818181818181818187
:10B9B0008181818181818181818181818181818177
:10B9C0008181818181818181818181FFFFFFFFFFF1
:10B9D000FFFFFF00472D43554245000000000000D7
:10B9E00000000000540000003800000008080806AD
:10B9F00002000180820D040D040D040D040D040DE0
:10BA0000040D040D80840D040D040D040D040D04BB
:10BA10000D040D040D80840D040D040D040D040DA2
:10BA2000040D040D040D8102522D435542450000C2
:10BA3000000000000000000054000000380000007A
:10BA40000808080602000181020D040D040D040D12
:10BA5000040D040D040D040D80840D040D040D046B
:10BA60000D040D040D040D040D80840D040D040D52
:10BA7000040D040D040D040D040D80824900000026
:10BA8000000000000000000000000000280000008E
:10BA90000B000000080801030200017E18181818A6
:10BAA000187E0000580000000000000000000000A8
:10BAB00000000000280000000B000000080801033F
:10BAC000020001183C7E7E7E24000000550000002C
:10BAD000000000000000000000000000280000003E
